{
  "_format": "hh-sol-artifact-1",
  "contractName": "StakeFactory",
  "sourceName": "contracts/stakeFactory.sol",
  "abi": [
    {
      "inputs": [
        {
          "internalType": "uint256",
          "name": "_interval",
          "type": "uint256"
        },
        {
          "internalType": "uint256",
          "name": "_profit",
          "type": "uint256"
        },
        {
          "internalType": "address",
          "name": "_to",
          "type": "address"
        },
        {
          "internalType": "address",
          "name": "_priceFeed",
          "type": "address"
        }
      ],
      "stateMutability": "payable",
      "type": "constructor"
    },
    {
      "inputs": [],
      "name": "Stake__NoStaker",
      "type": "error"
    },
    {
      "inputs": [],
      "name": "Stake__NotOpen",
      "type": "error"
    },
    {
      "inputs": [],
      "name": "Stake__NotOwner",
      "type": "error"
    },
    {
      "inputs": [],
      "name": "Stake__transferFailed",
      "type": "error"
    },
    {
      "anonymous": false,
      "inputs": [
        {
          "indexed": true,
          "internalType": "address",
          "name": "stakeContract",
          "type": "address"
        }
      ],
      "name": "createdStake",
      "type": "event"
    },
    {
      "stateMutability": "payable",
      "type": "fallback"
    },
    {
      "inputs": [],
      "name": "createStake",
      "outputs": [],
      "stateMutability": "payable",
      "type": "function"
    },
    {
      "inputs": [],
      "name": "getDeadlinefromContract",
      "outputs": [
        {
          "internalType": "uint256",
          "name": "",
          "type": "uint256"
        }
      ],
      "stateMutability": "view",
      "type": "function"
    },
    {
      "inputs": [],
      "name": "getInterval",
      "outputs": [
        {
          "internalType": "uint256",
          "name": "",
          "type": "uint256"
        }
      ],
      "stateMutability": "view",
      "type": "function"
    },
    {
      "inputs": [],
      "name": "getNoofStakers",
      "outputs": [
        {
          "internalType": "uint256",
          "name": "",
          "type": "uint256"
        }
      ],
      "stateMutability": "view",
      "type": "function"
    },
    {
      "inputs": [
        {
          "internalType": "uint256",
          "name": "_index",
          "type": "uint256"
        }
      ],
      "name": "getStakeAddresses",
      "outputs": [
        {
          "internalType": "address",
          "name": "",
          "type": "address"
        }
      ],
      "stateMutability": "view",
      "type": "function"
    },
    {
      "inputs": [],
      "name": "i_owner",
      "outputs": [
        {
          "internalType": "address",
          "name": "",
          "type": "address"
        }
      ],
      "stateMutability": "view",
      "type": "function"
    },
    {
      "inputs": [],
      "name": "showProfit",
      "outputs": [
        {
          "internalType": "uint256",
          "name": "",
          "type": "uint256"
        }
      ],
      "stateMutability": "view",
      "type": "function"
    },
    {
      "inputs": [
        {
          "internalType": "uint256",
          "name": "",
          "type": "uint256"
        }
      ],
      "name": "stakeAddresses",
      "outputs": [
        {
          "internalType": "contract Stake",
          "name": "",
          "type": "address"
        }
      ],
      "stateMutability": "view",
      "type": "function"
    },
    {
      "inputs": [
        {
          "internalType": "uint256",
          "name": "_amount",
          "type": "uint256"
        }
      ],
      "name": "withdraw",
      "outputs": [],
      "stateMutability": "payable",
      "type": "function"
    },
    {
      "stateMutability": "payable",
      "type": "receive"
    }
  ],
  "bytecode": "0x60c0604052604051620027fc380380620027fc83398181016040528101906200002991906200024d565b60003073ffffffffffffffffffffffffffffffffffffffff16346040516200005190620002f4565b60006040518083038185875af1925050503d806000811462000090576040519150601f19603f3d011682016040523d82523d6000602084013e62000095565b606091505b5050905080620000d1576040517ff1b8e45500000000000000000000000000000000000000000000000000000000815260040160405180910390fd5b33600260006101000a81548173ffffffffffffffffffffffffffffffffffffffff021916908373ffffffffffffffffffffffffffffffffffffffff1602179055508460808181525050426003819055508360018190555082600460006101000a81548173ffffffffffffffffffffffffffffffffffffffff021916908373ffffffffffffffffffffffffffffffffffffffff1602179055508173ffffffffffffffffffffffffffffffffffffffff1660a08173ffffffffffffffffffffffffffffffffffffffff168152505050505050506200030b565b600080fd5b6000819050919050565b620001c281620001ad565b8114620001ce57600080fd5b50565b600081519050620001e281620001b7565b92915050565b600073ffffffffffffffffffffffffffffffffffffffff82169050919050565b60006200021582620001e8565b9050919050565b620002278162000208565b81146200023357600080fd5b50565b60008151905062000247816200021c565b92915050565b600080600080608085870312156200026a5762000269620001a8565b5b60006200027a87828801620001d1565b94505060206200028d87828801620001d1565b9350506040620002a08782880162000236565b9250506060620002b38782880162000236565b91505092959194509250565b600081905092915050565b50565b6000620002dc600083620002bf565b9150620002e982620002ca565b600082019050919050565b60006200030182620002cd565b9150819050919050565b60805160a0516124c462000338600039600061040201526000818161036901526107f801526124c46000f3fe608060405260043610620000975760003560e01c80633fca7a6a11620000615780633fca7a6a14620001c35780638f351464146200020757806391ad27b41462000237578063b3dbd1bc1462000267578063dba6335f146200029757620000e0565b80630c7331b11462000123578063294f5fa3146200012f5780632cbd5e4214620001735780632e1a7d4d14620001a357620000e0565b36620000e057620000de6040518060400160405280600e81526020017f2d2d2d2d2d20726563656976653a00000000000000000000000000000000000081525034620002c7565b005b620001216040518060400160405280600f81526020017f2d2d2d2d2d2066616c6c6261636b3a000000000000000000000000000000000081525034620002c7565b005b6200012d62000367565b005b3480156200013c57600080fd5b506200015b6004803603810190620001559190620008c5565b62000506565b6040516200016a919062000982565b60405180910390f35b3480156200018057600080fd5b506200018b62000546565b6040516200019a9190620009b0565b60405180910390f35b620001c16004803603810190620001bb9190620008c5565b6200066c565b005b348015620001d057600080fd5b50620001ef6004803603810190620001e99190620008c5565b620007a0565b604051620001fe9190620009f2565b60405180910390f35b3480156200021457600080fd5b506200021f620007ea565b6040516200022e9190620009b0565b60405180910390f35b3480156200024457600080fd5b506200024f620007f4565b6040516200025e9190620009b0565b60405180910390f35b3480156200027457600080fd5b506200027f6200081c565b6040516200028e9190620009b0565b60405180910390f35b348015620002a457600080fd5b50620002af62000828565b604051620002be9190620009f2565b60405180910390f35b620003638282604051602401620002e092919062000ab3565b6040516020818303038152906040527f9710a9d0000000000000000000000000000000000000000000000000000000007bffffffffffffffffffffffffffffffffffffffffffffffffffffffff19166020820180517bffffffffffffffffffffffffffffffffffffffffffffffffffffffff83818316178352505050506200084e565b5050565b7f00000000000000000000000000000000000000000000000000000000000000006003544262000398919062000b16565b1015620003d1576040517f9693faf000000000000000000000000000000000000000000000000000000000815260040160405180910390fd5b426003819055506000600154600460009054906101000a900473ffffffffffffffffffffffffffffffffffffffff167f00000000000000000000000000000000000000000000000000000000000000006040516200042f9062000877565b6200043c92919062000b51565b6040518091039082f09050801580156200045a573d6000803e3d6000fd5b5090506000819080600181540180825580915050600190039060005260206000200160009091909190916101000a81548173ffffffffffffffffffffffffffffffffffffffff021916908373ffffffffffffffffffffffffffffffffffffffff1602179055508073ffffffffffffffffffffffffffffffffffffffff167f54bc5c83f6892238157d0568e97d12ded274eeefd5a6fc121aa090f4cacd6df660405160405180910390a250565b600081815481106200051757600080fd5b906000526020600020016000915054906101000a900473ffffffffffffffffffffffffffffffffffffffff1681565b600080620005536200081c565b90506000811162000590576040517f03bdd14700000000000000000000000000000000000000000000000000000000815260040160405180910390fd5b600080600183620005a2919062000b16565b81548110620005b657620005b562000b7e565b5b9060005260206000200160009054906101000a900473ffffffffffffffffffffffffffffffffffffffff1673ffffffffffffffffffffffffffffffffffffffff16635f8d96de6040518163ffffffff1660e01b815260040160206040518083038186803b1580156200062757600080fd5b505afa1580156200063c573d6000803e3d6000fd5b505050506040513d601f19601f8201168201806040525081019062000662919062000bc4565b9050809250505090565b600260009054906101000a900473ffffffffffffffffffffffffffffffffffffffff1673ffffffffffffffffffffffffffffffffffffffff163373ffffffffffffffffffffffffffffffffffffffff1614620006f4576040517ff703ca8600000000000000000000000000000000000000000000000000000000815260040160405180910390fd5b60003373ffffffffffffffffffffffffffffffffffffffff16826040516200071c9062000c2b565b60006040518083038185875af1925050503d80600081146200075b576040519150601f19603f3d011682016040523d82523d6000602084013e62000760565b606091505b50509050806200079c576040517ff1b8e45500000000000000000000000000000000000000000000000000000000815260040160405180910390fd5b5050565b6000808281548110620007b857620007b762000b7e565b5b9060005260206000200160009054906101000a900473ffffffffffffffffffffffffffffffffffffffff169050919050565b6000600154905090565b60007f0000000000000000000000000000000000000000000000000000000000000000905090565b60008080549050905090565b600260009054906101000a900473ffffffffffffffffffffffffffffffffffffffff1681565b60008151905060006a636f6e736f6c652e6c6f679050602083016000808483855afa5050505050565b61184c8062000c4383390190565b600080fd5b6000819050919050565b6200089f816200088a565b8114620008ab57600080fd5b50565b600081359050620008bf8162000894565b92915050565b600060208284031215620008de57620008dd62000885565b5b6000620008ee84828501620008ae565b91505092915050565b600073ffffffffffffffffffffffffffffffffffffffff82169050919050565b6000819050919050565b6000620009426200093c6200093684620008f7565b62000917565b620008f7565b9050919050565b6000620009568262000921565b9050919050565b60006200096a8262000949565b9050919050565b6200097c816200095d565b82525050565b600060208201905062000999600083018462000971565b92915050565b620009aa816200088a565b82525050565b6000602082019050620009c760008301846200099f565b92915050565b6000620009da82620008f7565b9050919050565b620009ec81620009cd565b82525050565b600060208201905062000a096000830184620009e1565b92915050565b600081519050919050565b600082825260208201905092915050565b60005b8381101562000a4b57808201518184015260208101905062000a2e565b8381111562000a5b576000848401525b50505050565b6000601f19601f8301169050919050565b600062000a7f8262000a0f565b62000a8b818562000a1a565b935062000a9d81856020860162000a2b565b62000aa88162000a61565b840191505092915050565b6000604082019050818103600083015262000acf818562000a72565b905062000ae060208301846200099f565b9392505050565b7f4e487b7100000000000000000000000000000000000000000000000000000000600052601160045260246000fd5b600062000b23826200088a565b915062000b30836200088a565b92508282101562000b465762000b4562000ae7565b5b828203905092915050565b600060408201905062000b686000830185620009e1565b62000b776020830184620009e1565b9392505050565b7f4e487b7100000000000000000000000000000000000000000000000000000000600052603260045260246000fd5b60008151905062000bbe8162000894565b92915050565b60006020828403121562000bdd5762000bdc62000885565b5b600062000bed8482850162000bad565b91505092915050565b600081905092915050565b50565b600062000c1360008362000bf6565b915062000c208262000c01565b600082019050919050565b600062000c388262000c04565b915081905091905056fe60c06040524760015560b46080908152506801158e460913d0000060a0908152506200003e600054600154620001d560201b6200092c1790919060201c565b6004556040516200184c3803806200184c833981810160405281019062000066919062000257565b60003073ffffffffffffffffffffffffffffffffffffffff16346040516200008e90620002d3565b60006040518083038185875af1925050503d8060008114620000cd576040519150601f19603f3d011682016040523d82523d6000602084013e620000d2565b606091505b50509050806200010e576040517ff1b8e45500000000000000000000000000000000000000000000000000000000815260040160405180910390fd5b346000819055506001600360006101000a81548160ff021916908360038111156200013e576200013d620002ea565b5b02179055504260028190555082600560006101000a81548173ffffffffffffffffffffffffffffffffffffffff021916908373ffffffffffffffffffffffffffffffffffffffff16021790555081600660006101000a81548173ffffffffffffffffffffffffffffffffffffffff021916908373ffffffffffffffffffffffffffffffffffffffff1602179055505050506200038d565b60008183620001e5919062000352565b905092915050565b600080fd5b600073ffffffffffffffffffffffffffffffffffffffff82169050919050565b60006200021f82620001f2565b9050919050565b620002318162000212565b81146200023d57600080fd5b50565b600081519050620002518162000226565b92915050565b60008060408385031215620002715762000270620001ed565b5b6000620002818582860162000240565b9250506020620002948582860162000240565b9150509250929050565b600081905092915050565b50565b6000620002bb6000836200029e565b9150620002c882620002a9565b600082019050919050565b6000620002e082620002ac565b9150819050919050565b7f4e487b7100000000000000000000000000000000000000000000000000000000600052602160045260246000fd5b6000819050919050565b7f4e487b7100000000000000000000000000000000000000000000000000000000600052601160045260246000fd5b60006200035f8262000319565b91506200036c8362000319565b92508282101562000382576200038162000323565b5b828203905092915050565b60805160a05161147d620003cf6000396000818161039f0152818161045901526108560152600081816102b60152818161066c01526107f8015261147d6000f3fe6080604052600436106100ab5760003560e01c8063ced72f8711610064578063ced72f87146101bf578063d0e30db0146101ea578063e3c998fe146101f4578063e5a4bed314610231578063e75235b81461025c578063f86ccd4114610287576100ba565b806327e235e3146100bf5780633ccfd60b146100fc5780634f1c44e8146101135780635c8c01061461013e5780635f8d96de14610169578063a9bdbf8914610194576100ba565b366100ba576100b86102b2565b005b600080fd5b3480156100cb57600080fd5b506100e660048036038101906100e19190610ea1565b610652565b6040516100f39190610ee7565b60405180910390f35b34801561010857600080fd5b5061011161066a565b005b34801561011f57600080fd5b506101286107d4565b6040516101359190610f79565b60405180910390f35b34801561014a57600080fd5b506101536107e7565b6040516101609190610ee7565b60405180910390f35b34801561017557600080fd5b5061017e6107f4565b60405161018b9190610ee7565b60405180910390f35b3480156101a057600080fd5b506101a961081c565b6040516101b69190610ee7565b60405180910390f35b3480156101cb57600080fd5b506101d4610826565b6040516101e19190610ee7565b60405180910390f35b6101f26102b2565b005b34801561020057600080fd5b5061021b60048036038101906102169190610fc0565b610888565b6040516102289190610ffc565b60405180910390f35b34801561023d57600080fd5b506102466108d0565b6040516102539190610ee7565b60405180910390f35b34801561026857600080fd5b506102716108d9565b60405161027e9190610ee7565b60405180910390f35b34801561029357600080fd5b5061029c610924565b6040516102a99190610ee7565b60405180910390f35b60007f00000000000000000000000000000000000000000000000000000000000000006102ea6002544261092c90919063ffffffff16565b119050600080471190508180156102fe5750805b1561032f576000600360006101000a81548160ff0219169083600381111561032957610328610f02565b5b02179055505b6000600381111561034357610342610f02565b5b600360009054906101000a900460ff16600381111561036557610364610f02565b5b141561039d576040517f931c2fa100000000000000000000000000000000000000000000000000000000815260040160405180910390fd5b7f00000000000000000000000000000000000000000000000000000000000000006103f3600660009054906101000a900473ffffffffffffffffffffffffffffffffffffffff163461094290919063ffffffff16565b1161042a576040517f6ef2e20400000000000000000000000000000000000000000000000000000000815260040160405180910390fd5b6000610457600660009054906101000a900473ffffffffffffffffffffffffffffffffffffffff1661097e565b7f00000000000000000000000000000000000000000000000000000000000000006104829190611075565b90506000813461049291906110a6565b90506000600560009054906101000a900473ffffffffffffffffffffffffffffffffffffffff1673ffffffffffffffffffffffffffffffffffffffff16836040516104dc9061110b565b60006040518083038185875af1925050503d8060008114610519576040519150601f19603f3d011682016040523d82523d6000602084013e61051e565b606091505b5050905080610559576040517ff1b8e45500000000000000000000000000000000000000000000000000000000815260040160405180910390fd5b81600760003373ffffffffffffffffffffffffffffffffffffffff1673ffffffffffffffffffffffffffffffffffffffff16815260200190815260200160002060008282546105a89190611120565b925050819055506008339080600181540180825580915050600190039060005260206000200160009091909190916101000a81548173ffffffffffffffffffffffffffffffffffffffff021916908373ffffffffffffffffffffffffffffffffffffffff1602179055507f82228ddde9005f71e552e17d0b2b4bd53f597251cd2afae87474c9895438a57a8233604051610643929190611176565b60405180910390a15050505050565b60076020528060005260406000206000915090505481565b7f00000000000000000000000000000000000000000000000000000000000000006106a06002544261092c90919063ffffffff16565b10156106d8576040517f65e76f8100000000000000000000000000000000000000000000000000000000815260040160405180910390fd5b60006106ef6000544761092c90919063ffffffff16565b90506000610728600660009054906101000a900473ffffffffffffffffffffffffffffffffffffffff168361094290919063ffffffff16565b9050685150ae84a8cdf000008110610772576002600360006101000a81548160ff021916908360038111156107605761075f610f02565b5b021790555061076d610a1e565b6107a5565b60038060006101000a81548160ff0219169083600381111561079757610796610f02565b5b02179055506107a4610b9f565b5b6000600360006101000a81548160ff021916908360038111156107cb576107ca610f02565b5b02179055505050565b600360009054906101000a900460ff1681565b6000600880549050905090565b60007f0000000000000000000000000000000000000000000000000000000000000000905090565b6000600454905090565b600080610854600660009054906101000a900473ffffffffffffffffffffffffffffffffffffffff1661097e565b7f000000000000000000000000000000000000000000000000000000000000000061087f9190611075565b90508091505090565b60006008828154811061089e5761089d61119f565b5b9060005260206000200160009054906101000a900473ffffffffffffffffffffffffffffffffffffffff169050919050565b60008054905090565b600080610907600660009054906101000a900473ffffffffffffffffffffffffffffffffffffffff1661097e565b685150ae84a8cdf0000061091b9190611075565b90508091505090565b600047905090565b6000818361093a91906110a6565b905092915050565b60008061094e83610d0e565b90506000670de0b6b3a7640000858361096791906111ce565b6109719190611075565b9050809250505092915050565b6000808273ffffffffffffffffffffffffffffffffffffffff1663feaf968c6040518163ffffffff1660e01b815260040160a06040518083038186803b1580156109c757600080fd5b505afa1580156109db573d6000803e3d6000fd5b505050506040513d601f19601f820116820180604052508101906109ff91906112b5565b5050509150506402540be40081610a169190611330565b915050919050565b60026003811115610a3257610a31610f02565b5b600360009054906101000a900460ff166003811115610a5457610a53610f02565b5b14610a5e57600080fd5b6000600760003373ffffffffffffffffffffffffffffffffffffffff1673ffffffffffffffffffffffffffffffffffffffff1681526020019081526020016000205490506000610ab082600454610dae565b90506000600760003273ffffffffffffffffffffffffffffffffffffffff1673ffffffffffffffffffffffffffffffffffffffff1681526020019081526020016000208190555060003273ffffffffffffffffffffffffffffffffffffffff1682604051610b1d9061110b565b60006040518083038185875af1925050503d8060008114610b5a576040519150601f19603f3d011682016040523d82523d6000602084013e610b5f565b606091505b5050905080610b9a576040517ff1b8e45500000000000000000000000000000000000000000000000000000000815260040160405180910390fd5b505050565b600380811115610bb257610bb1610f02565b5b600360009054906101000a900460ff166003811115610bd457610bd3610f02565b5b14610bde57600080fd5b6000600760003373ffffffffffffffffffffffffffffffffffffffff1673ffffffffffffffffffffffffffffffffffffffff1681526020019081526020016000205490506000600760003273ffffffffffffffffffffffffffffffffffffffff1673ffffffffffffffffffffffffffffffffffffffff1681526020019081526020016000208190555060003273ffffffffffffffffffffffffffffffffffffffff1682604051610c8d9061110b565b60006040518083038185875af1925050503d8060008114610cca576040519150601f19603f3d011682016040523d82523d6000602084013e610ccf565b606091505b5050905080610d0a576040517ff1b8e45500000000000000000000000000000000000000000000000000000000815260040160405180910390fd5b5050565b6000808273ffffffffffffffffffffffffffffffffffffffff1663feaf968c6040518163ffffffff1660e01b815260040160a06040518083038186803b158015610d5757600080fd5b505afa158015610d6b573d6000803e3d6000fd5b505050506040513d601f19601f82011682018060405250810190610d8f91906112b5565b5050509150506402540be40081610da69190611330565b915050919050565b600080610dd8600054610dca8587610dfc90919063ffffffff16565b610e1290919063ffffffff16565b90506000610def8286610e2890919063ffffffff16565b9050809250505092915050565b60008183610e0a9190611075565b905092915050565b60008183610e2091906111ce565b905092915050565b60008183610e369190611120565b905092915050565b600080fd5b600073ffffffffffffffffffffffffffffffffffffffff82169050919050565b6000610e6e82610e43565b9050919050565b610e7e81610e63565b8114610e8957600080fd5b50565b600081359050610e9b81610e75565b92915050565b600060208284031215610eb757610eb6610e3e565b5b6000610ec584828501610e8c565b91505092915050565b6000819050919050565b610ee181610ece565b82525050565b6000602082019050610efc6000830184610ed8565b92915050565b7f4e487b7100000000000000000000000000000000000000000000000000000000600052602160045260246000fd5b60048110610f4257610f41610f02565b5b50565b6000819050610f5382610f31565b919050565b6000610f6382610f45565b9050919050565b610f7381610f58565b82525050565b6000602082019050610f8e6000830184610f6a565b92915050565b610f9d81610ece565b8114610fa857600080fd5b50565b600081359050610fba81610f94565b92915050565b600060208284031215610fd657610fd5610e3e565b5b6000610fe484828501610fab565b91505092915050565b610ff681610e63565b82525050565b60006020820190506110116000830184610fed565b92915050565b7f4e487b7100000000000000000000000000000000000000000000000000000000600052601260045260246000fd5b7f4e487b7100000000000000000000000000000000000000000000000000000000600052601160045260246000fd5b600061108082610ece565b915061108b83610ece565b92508261109b5761109a611017565b5b828204905092915050565b60006110b182610ece565b91506110bc83610ece565b9250828210156110cf576110ce611046565b5b828203905092915050565b600081905092915050565b50565b60006110f56000836110da565b9150611100826110e5565b600082019050919050565b6000611116826110e8565b9150819050919050565b600061112b82610ece565b915061113683610ece565b9250827fffffffffffffffffffffffffffffffffffffffffffffffffffffffffffffffff0382111561116b5761116a611046565b5b828201905092915050565b600060408201905061118b6000830185610ed8565b6111986020830184610fed565b9392505050565b7f4e487b7100000000000000000000000000000000000000000000000000000000600052603260045260246000fd5b60006111d982610ece565b91506111e483610ece565b9250817fffffffffffffffffffffffffffffffffffffffffffffffffffffffffffffffff048311821515161561121d5761121c611046565b5b828202905092915050565b600069ffffffffffffffffffff82169050919050565b61124781611228565b811461125257600080fd5b50565b6000815190506112648161123e565b92915050565b6000819050919050565b61127d8161126a565b811461128857600080fd5b50565b60008151905061129a81611274565b92915050565b6000815190506112af81610f94565b92915050565b600080600080600060a086880312156112d1576112d0610e3e565b5b60006112df88828901611255565b95505060206112f08882890161128b565b9450506040611301888289016112a0565b9350506060611312888289016112a0565b925050608061132388828901611255565b9150509295509295909350565b600061133b8261126a565b91506113468361126a565b9250827f7fffffffffffffffffffffffffffffffffffffffffffffffffffffffffffffff048211600084136000841316161561138557611384611046565b5b817f800000000000000000000000000000000000000000000000000000000000000005831260008412600084131616156113c2576113c1611046565b5b827f800000000000000000000000000000000000000000000000000000000000000005821260008413600084121616156113ff576113fe611046565b5b827f7fffffffffffffffffffffffffffffffffffffffffffffffffffffffffffffff058212600084126000841216161561143c5761143b611046565b5b82820290509291505056fea2646970667358221220698b2582360bfdf9676a70ad9e59ca9620061cfbc2ca78137d3c8a61fd74873064736f6c63430008090033a2646970667358221220649e864bb13f316805d9cc6b92d2b6d485d741f59e1df58735bd99a003f7304964736f6c63430008090033",
  "linkReferences": {},
  "deployedLinkReferences": {}
}