{
  "_format": "hh-sol-artifact-1",
  "contractName": "StakeFactory",
  "sourceName": "contracts/stakeFactory.sol",
  "abi": [
    {
      "inputs": [
        {
          "internalType": "uint256",
          "name": "_interval",
          "type": "uint256"
        },
        {
          "internalType": "uint256",
          "name": "_profit",
          "type": "uint256"
        },
        {
          "internalType": "address",
          "name": "_to",
          "type": "address"
        }
      ],
      "stateMutability": "payable",
      "type": "constructor"
    },
    {
      "inputs": [],
      "name": "Stake__NoStaker",
      "type": "error"
    },
    {
      "inputs": [],
      "name": "Stake__NotOpen",
      "type": "error"
    },
    {
      "inputs": [],
      "name": "Stake__NotOwner",
      "type": "error"
    },
    {
      "inputs": [],
      "name": "Stake__transferFailed",
      "type": "error"
    },
    {
      "anonymous": false,
      "inputs": [
        {
          "indexed": true,
          "internalType": "address",
          "name": "stakeContract",
          "type": "address"
        }
      ],
      "name": "createdStake",
      "type": "event"
    },
    {
      "stateMutability": "payable",
      "type": "fallback"
    },
    {
      "inputs": [],
      "name": "createStake",
      "outputs": [],
      "stateMutability": "payable",
      "type": "function"
    },
    {
      "inputs": [],
      "name": "getDeadlinefromContract",
      "outputs": [
        {
          "internalType": "uint256",
          "name": "",
          "type": "uint256"
        }
      ],
      "stateMutability": "view",
      "type": "function"
    },
    {
      "inputs": [],
      "name": "getInterval",
      "outputs": [
        {
          "internalType": "uint256",
          "name": "",
          "type": "uint256"
        }
      ],
      "stateMutability": "view",
      "type": "function"
    },
    {
      "inputs": [],
      "name": "getNoofStakers",
      "outputs": [
        {
          "internalType": "uint256",
          "name": "",
          "type": "uint256"
        }
      ],
      "stateMutability": "view",
      "type": "function"
    },
    {
      "inputs": [
        {
          "internalType": "uint256",
          "name": "_index",
          "type": "uint256"
        }
      ],
      "name": "getStakeAddresses",
      "outputs": [
        {
          "internalType": "address",
          "name": "",
          "type": "address"
        }
      ],
      "stateMutability": "view",
      "type": "function"
    },
    {
      "inputs": [],
      "name": "i_owner",
      "outputs": [
        {
          "internalType": "address",
          "name": "",
          "type": "address"
        }
      ],
      "stateMutability": "view",
      "type": "function"
    },
    {
      "inputs": [],
      "name": "showProfit",
      "outputs": [
        {
          "internalType": "uint256",
          "name": "",
          "type": "uint256"
        }
      ],
      "stateMutability": "view",
      "type": "function"
    },
    {
      "inputs": [
        {
          "internalType": "uint256",
          "name": "",
          "type": "uint256"
        }
      ],
      "name": "stakeAddresses",
      "outputs": [
        {
          "internalType": "contract Stake",
          "name": "",
          "type": "address"
        }
      ],
      "stateMutability": "view",
      "type": "function"
    },
    {
      "inputs": [
        {
          "internalType": "uint256",
          "name": "_amount",
          "type": "uint256"
        }
      ],
      "name": "withdraw",
      "outputs": [],
      "stateMutability": "payable",
      "type": "function"
    },
    {
      "stateMutability": "payable",
      "type": "receive"
    }
  ],
  "bytecode": "0x60a06040526040516200222b3803806200222b833981810160405281019062000029919062000218565b60003073ffffffffffffffffffffffffffffffffffffffff16346040516200005190620002a9565b60006040518083038185875af1925050503d806000811462000090576040519150601f19603f3d011682016040523d82523d6000602084013e62000095565b606091505b5050905080620000d1576040517ff1b8e45500000000000000000000000000000000000000000000000000000000815260040160405180910390fd5b33600260006101000a81548173ffffffffffffffffffffffffffffffffffffffff021916908373ffffffffffffffffffffffffffffffffffffffff1602179055508360808181525050426003819055508260018190555081600460006101000a81548173ffffffffffffffffffffffffffffffffffffffff021916908373ffffffffffffffffffffffffffffffffffffffff16021790555050505050620002c0565b600080fd5b6000819050919050565b6200018d8162000178565b81146200019957600080fd5b50565b600081519050620001ad8162000182565b92915050565b600073ffffffffffffffffffffffffffffffffffffffff82169050919050565b6000620001e082620001b3565b9050919050565b620001f281620001d3565b8114620001fe57600080fd5b50565b6000815190506200021281620001e7565b92915050565b60008060006060848603121562000234576200023362000173565b5b600062000244868287016200019c565b935050602062000257868287016200019c565b92505060406200026a8682870162000201565b9150509250925092565b600081905092915050565b50565b60006200029160008362000274565b91506200029e826200027f565b600082019050919050565b6000620002b68262000282565b9150819050919050565b608051611f48620002e36000396000818161036901526107d60152611f486000f3fe608060405260043610620000975760003560e01c80633fca7a6a11620000615780633fca7a6a14620001c35780638f351464146200020757806391ad27b41462000237578063b3dbd1bc1462000267578063dba6335f146200029757620000e0565b80630c7331b11462000123578063294f5fa3146200012f5780632cbd5e4214620001735780632e1a7d4d14620001a357620000e0565b36620000e057620000de6040518060400160405280600e81526020017f2d2d2d2d2d20726563656976653a00000000000000000000000000000000000081525034620002c7565b005b620001216040518060400160405280600f81526020017f2d2d2d2d2d2066616c6c6261636b3a000000000000000000000000000000000081525034620002c7565b005b6200012d62000367565b005b3480156200013c57600080fd5b506200015b6004803603810190620001559190620008a3565b620004e4565b6040516200016a919062000960565b60405180910390f35b3480156200018057600080fd5b506200018b62000524565b6040516200019a91906200098e565b60405180910390f35b620001c16004803603810190620001bb9190620008a3565b6200064a565b005b348015620001d057600080fd5b50620001ef6004803603810190620001e99190620008a3565b6200077e565b604051620001fe9190620009d0565b60405180910390f35b3480156200021457600080fd5b506200021f620007c8565b6040516200022e91906200098e565b60405180910390f35b3480156200024457600080fd5b506200024f620007d2565b6040516200025e91906200098e565b60405180910390f35b3480156200027457600080fd5b506200027f620007fa565b6040516200028e91906200098e565b60405180910390f35b348015620002a457600080fd5b50620002af62000806565b604051620002be9190620009d0565b60405180910390f35b620003638282604051602401620002e092919062000a91565b6040516020818303038152906040527f9710a9d0000000000000000000000000000000000000000000000000000000007bffffffffffffffffffffffffffffffffffffffffffffffffffffffff19166020820180517bffffffffffffffffffffffffffffffffffffffffffffffffffffffff83818316178352505050506200082c565b5050565b7f00000000000000000000000000000000000000000000000000000000000000006003544262000398919062000af4565b1015620003d1576040517f9693faf000000000000000000000000000000000000000000000000000000000815260040160405180910390fd5b426003819055506000600154600460009054906101000a900473ffffffffffffffffffffffffffffffffffffffff166040516200040e9062000855565b6200041a9190620009d0565b6040518091039082f090508015801562000438573d6000803e3d6000fd5b5090506000819080600181540180825580915050600190039060005260206000200160009091909190916101000a81548173ffffffffffffffffffffffffffffffffffffffff021916908373ffffffffffffffffffffffffffffffffffffffff1602179055508073ffffffffffffffffffffffffffffffffffffffff167f54bc5c83f6892238157d0568e97d12ded274eeefd5a6fc121aa090f4cacd6df660405160405180910390a250565b60008181548110620004f557600080fd5b906000526020600020016000915054906101000a900473ffffffffffffffffffffffffffffffffffffffff1681565b60008062000531620007fa565b9050600081116200056e576040517f03bdd14700000000000000000000000000000000000000000000000000000000815260040160405180910390fd5b60008060018362000580919062000af4565b8154811062000594576200059362000b2f565b5b9060005260206000200160009054906101000a900473ffffffffffffffffffffffffffffffffffffffff1673ffffffffffffffffffffffffffffffffffffffff16635f8d96de6040518163ffffffff1660e01b815260040160206040518083038186803b1580156200060557600080fd5b505afa1580156200061a573d6000803e3d6000fd5b505050506040513d601f19601f8201168201806040525081019062000640919062000b75565b9050809250505090565b600260009054906101000a900473ffffffffffffffffffffffffffffffffffffffff1673ffffffffffffffffffffffffffffffffffffffff163373ffffffffffffffffffffffffffffffffffffffff1614620006d2576040517ff703ca8600000000000000000000000000000000000000000000000000000000815260040160405180910390fd5b60003373ffffffffffffffffffffffffffffffffffffffff1682604051620006fa9062000bdc565b60006040518083038185875af1925050503d806000811462000739576040519150601f19603f3d011682016040523d82523d6000602084013e6200073e565b606091505b50509050806200077a576040517ff1b8e45500000000000000000000000000000000000000000000000000000000815260040160405180910390fd5b5050565b600080828154811062000796576200079562000b2f565b5b9060005260206000200160009054906101000a900473ffffffffffffffffffffffffffffffffffffffff169050919050565b6000600154905090565b60007f0000000000000000000000000000000000000000000000000000000000000000905090565b60008080549050905090565b600260009054906101000a900473ffffffffffffffffffffffffffffffffffffffff1681565b60008151905060006a636f6e736f6c652e6c6f679050602083016000808483855afa5050505050565b61131f8062000bf483390190565b600080fd5b6000819050919050565b6200087d8162000868565b81146200088957600080fd5b50565b6000813590506200089d8162000872565b92915050565b600060208284031215620008bc57620008bb62000863565b5b6000620008cc848285016200088c565b91505092915050565b600073ffffffffffffffffffffffffffffffffffffffff82169050919050565b6000819050919050565b6000620009206200091a6200091484620008d5565b620008f5565b620008d5565b9050919050565b60006200093482620008ff565b9050919050565b6000620009488262000927565b9050919050565b6200095a816200093b565b82525050565b60006020820190506200097760008301846200094f565b92915050565b620009888162000868565b82525050565b6000602082019050620009a560008301846200097d565b92915050565b6000620009b882620008d5565b9050919050565b620009ca81620009ab565b82525050565b6000602082019050620009e76000830184620009bf565b92915050565b600081519050919050565b600082825260208201905092915050565b60005b8381101562000a2957808201518184015260208101905062000a0c565b8381111562000a39576000848401525b50505050565b6000601f19601f8301169050919050565b600062000a5d82620009ed565b62000a698185620009f8565b935062000a7b81856020860162000a09565b62000a868162000a3f565b840191505092915050565b6000604082019050818103600083015262000aad818562000a50565b905062000abe60208301846200097d565b9392505050565b7f4e487b7100000000000000000000000000000000000000000000000000000000600052601160045260246000fd5b600062000b018262000868565b915062000b0e8362000868565b92508282101562000b245762000b2362000ac5565b5b828203905092915050565b7f4e487b7100000000000000000000000000000000000000000000000000000000600052603260045260246000fd5b60008151905062000b6f8162000872565b92915050565b60006020828403121562000b8e5762000b8d62000863565b5b600062000b9e8482850162000b5e565b91505092915050565b600081905092915050565b50565b600062000bc460008362000ba7565b915062000bd18262000bb2565b600082019050919050565b600062000be98262000bb5565b915081905091905056fe60c060405247600155611c2060809081525066470de4df82000060a0908152506040516200131f3803806200131f8339818101604052810190620000449190620001db565b60003073ffffffffffffffffffffffffffffffffffffffff16346040516200006c9062000242565b60006040518083038185875af1925050503d8060008114620000ab576040519150601f19603f3d011682016040523d82523d6000602084013e620000b0565b606091505b5050905080620000ec576040517ff1b8e45500000000000000000000000000000000000000000000000000000000815260040160405180910390fd5b346000819055506001600360006101000a81548160ff021916908360038111156200011c576200011b62000259565b5b02179055504260028190555081600360016101000a81548173ffffffffffffffffffffffffffffffffffffffff021916908373ffffffffffffffffffffffffffffffffffffffff160217905550505062000288565b600080fd5b600073ffffffffffffffffffffffffffffffffffffffff82169050919050565b6000620001a38262000176565b9050919050565b620001b58162000196565b8114620001c157600080fd5b50565b600081519050620001d581620001aa565b92915050565b600060208284031215620001f457620001f362000171565b5b60006200020484828501620001c4565b91505092915050565b600081905092915050565b50565b60006200022a6000836200020d565b9150620002378262000218565b600082019050919050565b60006200024f826200021b565b9150819050919050565b7f4e487b7100000000000000000000000000000000000000000000000000000000600052602160045260246000fd5b60805160a05161104e620002d16000396000818161039f015281816103fa0152818161046301526108000152600081816102b6015281816106050152610756015261104e6000f3fe6080604052600436106100ab5760003560e01c8063ced72f8711610064578063ced72f87146101bf578063d0e30db0146101ea578063e3c998fe146101f4578063e5a4bed314610231578063e75235b81461025c578063f86ccd4114610287576100ba565b80633ccfd60b146100bf5780634f1c44e8146100d65780635c8c0106146101015780635f8d96de1461012c5780636a69788b14610157578063a9bdbf8914610194576100ba565b366100ba576100b86102b2565b005b600080fd5b3480156100cb57600080fd5b506100d4610603565b005b3480156100e257600080fd5b506100eb610732565b6040516100f89190610ca5565b60405180910390f35b34801561010d57600080fd5b50610116610745565b6040516101239190610cd9565b60405180910390f35b34801561013857600080fd5b50610141610752565b60405161014e9190610cd9565b60405180910390f35b34801561016357600080fd5b5061017e60048036038101906101799190610d57565b61077a565b60405161018b9190610cd9565b60405180910390f35b3480156101a057600080fd5b506101a96107c3565b6040516101b69190610cd9565b60405180910390f35b3480156101cb57600080fd5b506101d46107fc565b6040516101e19190610cd9565b60405180910390f35b6101f26102b2565b005b34801561020057600080fd5b5061021b60048036038101906102169190610db0565b610824565b6040516102289190610dec565b60405180910390f35b34801561023d57600080fd5b5061024661086c565b6040516102539190610cd9565b60405180910390f35b34801561026857600080fd5b50610271610875565b60405161027e9190610cd9565b60405180910390f35b34801561029357600080fd5b5061029c610885565b6040516102a99190610cd9565b60405180910390f35b60007f00000000000000000000000000000000000000000000000000000000000000006102ea6002544261088d90919063ffffffff16565b119050600080471190508180156102fe5750805b1561032f576000600360006101000a81548160ff0219169083600381111561032957610328610c2e565b5b02179055505b6000600381111561034357610342610c2e565b5b600360009054906101000a900460ff16600381111561036557610364610c2e565b5b141561039d576040517f931c2fa100000000000000000000000000000000000000000000000000000000815260040160405180910390fd5b7f000000000000000000000000000000000000000000000000000000000000000034116103f6576040517f6ef2e20400000000000000000000000000000000000000000000000000000000815260040160405180910390fd5b60007f0000000000000000000000000000000000000000000000000000000000000000346104249190610e36565b90506000600360019054906101000a900473ffffffffffffffffffffffffffffffffffffffff1673ffffffffffffffffffffffffffffffffffffffff167f000000000000000000000000000000000000000000000000000000000000000060405161048e90610e9b565b60006040518083038185875af1925050503d80600081146104cb576040519150601f19603f3d011682016040523d82523d6000602084013e6104d0565b606091505b505090508061050b576040517ff1b8e45500000000000000000000000000000000000000000000000000000000815260040160405180910390fd5b81600460003373ffffffffffffffffffffffffffffffffffffffff1673ffffffffffffffffffffffffffffffffffffffff168152602001908152602001600020600082825461055a9190610eb0565b925050819055506005339080600181540180825580915050600190039060005260206000200160009091909190916101000a81548173ffffffffffffffffffffffffffffffffffffffff021916908373ffffffffffffffffffffffffffffffffffffffff1602179055507f82228ddde9005f71e552e17d0b2b4bd53f597251cd2afae87474c9895438a57a82336040516105f5929190610f06565b60405180910390a150505050565b7f00000000000000000000000000000000000000000000000000000000000000006106396002544261088d90919063ffffffff16565b1015610671576040517f65e76f8100000000000000000000000000000000000000000000000000000000815260040160405180910390fd5b60006106886000544761088d90919063ffffffff16565b90506714d1120d7b16000081106106d1576002600360006101000a81548160ff021916908360038111156106bf576106be610c2e565b5b02179055506106cc6108a3565b610704565b60038060006101000a81548160ff021916908360038111156106f6576106f5610c2e565b5b0217905550610703610a2f565b5b6000600360006101000a81548160ff0219169083600381111561072a57610729610c2e565b5b021790555050565b600360009054906101000a900460ff1681565b6000600580549050905090565b60007f0000000000000000000000000000000000000000000000000000000000000000905090565b6000600460008373ffffffffffffffffffffffffffffffffffffffff1673ffffffffffffffffffffffffffffffffffffffff168152602001908152602001600020549050919050565b6000806107ce610885565b905060006107da61086c565b905060006107f1828461088d90919063ffffffff16565b905080935050505090565b60007f0000000000000000000000000000000000000000000000000000000000000000905090565b60006005828154811061083a57610839610f2f565b5b9060005260206000200160009054906101000a900473ffffffffffffffffffffffffffffffffffffffff169050919050565b60008054905090565b60006714d1120d7b160000905090565b600047905090565b6000818361089b9190610e36565b905092915050565b600260038111156108b7576108b6610c2e565b5b600360009054906101000a900460ff1660038111156108d9576108d8610c2e565b5b146108e357600080fd5b6000600460003373ffffffffffffffffffffffffffffffffffffffff1673ffffffffffffffffffffffffffffffffffffffff16815260200190815260200160002054905060006109316107c3565b9050600061093f8383610b9e565b90506000600460003273ffffffffffffffffffffffffffffffffffffffff1673ffffffffffffffffffffffffffffffffffffffff1681526020019081526020016000208190555060003273ffffffffffffffffffffffffffffffffffffffff16826040516109ac90610e9b565b60006040518083038185875af1925050503d80600081146109e9576040519150601f19603f3d011682016040523d82523d6000602084013e6109ee565b606091505b5050905080610a29576040517ff1b8e45500000000000000000000000000000000000000000000000000000000815260040160405180910390fd5b50505050565b600380811115610a4257610a41610c2e565b5b600360009054906101000a900460ff166003811115610a6457610a63610c2e565b5b14610a6e57600080fd5b6000600460003373ffffffffffffffffffffffffffffffffffffffff1673ffffffffffffffffffffffffffffffffffffffff1681526020019081526020016000205490506000600460003273ffffffffffffffffffffffffffffffffffffffff1673ffffffffffffffffffffffffffffffffffffffff1681526020019081526020016000208190555060003273ffffffffffffffffffffffffffffffffffffffff1682604051610b1d90610e9b565b60006040518083038185875af1925050503d8060008114610b5a576040519150601f19603f3d011682016040523d82523d6000602084013e610b5f565b606091505b5050905080610b9a576040517ff1b8e45500000000000000000000000000000000000000000000000000000000815260040160405180910390fd5b5050565b600080610bc8600054610bba8587610bec90919063ffffffff16565b610c0290919063ffffffff16565b90506000610bdf8286610c1890919063ffffffff16565b9050809250505092915050565b60008183610bfa9190610f8d565b905092915050565b60008183610c109190610fbe565b905092915050565b60008183610c269190610eb0565b905092915050565b7f4e487b7100000000000000000000000000000000000000000000000000000000600052602160045260246000fd5b60048110610c6e57610c6d610c2e565b5b50565b6000819050610c7f82610c5d565b919050565b6000610c8f82610c71565b9050919050565b610c9f81610c84565b82525050565b6000602082019050610cba6000830184610c96565b92915050565b6000819050919050565b610cd381610cc0565b82525050565b6000602082019050610cee6000830184610cca565b92915050565b600080fd5b600073ffffffffffffffffffffffffffffffffffffffff82169050919050565b6000610d2482610cf9565b9050919050565b610d3481610d19565b8114610d3f57600080fd5b50565b600081359050610d5181610d2b565b92915050565b600060208284031215610d6d57610d6c610cf4565b5b6000610d7b84828501610d42565b91505092915050565b610d8d81610cc0565b8114610d9857600080fd5b50565b600081359050610daa81610d84565b92915050565b600060208284031215610dc657610dc5610cf4565b5b6000610dd484828501610d9b565b91505092915050565b610de681610d19565b82525050565b6000602082019050610e016000830184610ddd565b92915050565b7f4e487b7100000000000000000000000000000000000000000000000000000000600052601160045260246000fd5b6000610e4182610cc0565b9150610e4c83610cc0565b925082821015610e5f57610e5e610e07565b5b828203905092915050565b600081905092915050565b50565b6000610e85600083610e6a565b9150610e9082610e75565b600082019050919050565b6000610ea682610e78565b9150819050919050565b6000610ebb82610cc0565b9150610ec683610cc0565b9250827fffffffffffffffffffffffffffffffffffffffffffffffffffffffffffffffff03821115610efb57610efa610e07565b5b828201905092915050565b6000604082019050610f1b6000830185610cca565b610f286020830184610ddd565b9392505050565b7f4e487b7100000000000000000000000000000000000000000000000000000000600052603260045260246000fd5b7f4e487b7100000000000000000000000000000000000000000000000000000000600052601260045260246000fd5b6000610f9882610cc0565b9150610fa383610cc0565b925082610fb357610fb2610f5e565b5b828204905092915050565b6000610fc982610cc0565b9150610fd483610cc0565b9250817fffffffffffffffffffffffffffffffffffffffffffffffffffffffffffffffff048311821515161561100d5761100c610e07565b5b82820290509291505056fea2646970667358221220dfac7c88210c7091bf264275e5bb84e549cace707b54102567b443abaf657cff64736f6c63430008090033a26469706673582212206d60da3fa2e5fa0c26ec3316584fd9c8161e0712dcc0c1892c0615027367bd1864736f6c63430008090033",
  "linkReferences": {},
  "deployedLinkReferences": {}
}