{
  "_format": "hh-sol-artifact-1",
  "contractName": "Stake",
  "sourceName": "contracts/stake.sol",
  "abi": [
    {
      "inputs": [
        {
          "internalType": "address",
          "name": "_to",
          "type": "address"
        }
      ],
      "stateMutability": "payable",
      "type": "constructor"
    },
    {
      "inputs": [],
      "name": "Stake__closed",
      "type": "error"
    },
    {
      "inputs": [],
      "name": "Stake__deadlineNotReached",
      "type": "error"
    },
    {
      "inputs": [],
      "name": "Stake__sendMoreEth",
      "type": "error"
    },
    {
      "inputs": [],
      "name": "Stake__transferFailed",
      "type": "error"
    },
    {
      "anonymous": false,
      "inputs": [
        {
          "indexed": false,
          "internalType": "uint256",
          "name": "amount",
          "type": "uint256"
        },
        {
          "indexed": false,
          "internalType": "address",
          "name": "sender",
          "type": "address"
        }
      ],
      "name": "depositedEth",
      "type": "event"
    },
    {
      "inputs": [],
      "name": "_stakeState",
      "outputs": [
        {
          "internalType": "enum Stake.StakeState",
          "name": "",
          "type": "uint8"
        }
      ],
      "stateMutability": "view",
      "type": "function"
    },
    {
      "inputs": [],
      "name": "amountDeposited",
      "outputs": [
        {
          "internalType": "uint256",
          "name": "",
          "type": "uint256"
        }
      ],
      "stateMutability": "view",
      "type": "function"
    },
    {
      "inputs": [],
      "name": "deposit",
      "outputs": [],
      "stateMutability": "payable",
      "type": "function"
    },
    {
      "inputs": [],
      "name": "getAmountStaked",
      "outputs": [
        {
          "internalType": "uint256",
          "name": "",
          "type": "uint256"
        }
      ],
      "stateMutability": "view",
      "type": "function"
    },
    {
      "inputs": [],
      "name": "getDeadline",
      "outputs": [
        {
          "internalType": "uint256",
          "name": "",
          "type": "uint256"
        }
      ],
      "stateMutability": "pure",
      "type": "function"
    },
    {
      "inputs": [],
      "name": "getFee",
      "outputs": [
        {
          "internalType": "uint256",
          "name": "",
          "type": "uint256"
        }
      ],
      "stateMutability": "pure",
      "type": "function"
    },
    {
      "inputs": [],
      "name": "getInterest",
      "outputs": [
        {
          "internalType": "uint256",
          "name": "",
          "type": "uint256"
        }
      ],
      "stateMutability": "view",
      "type": "function"
    },
    {
      "inputs": [],
      "name": "getStakelength",
      "outputs": [
        {
          "internalType": "uint256",
          "name": "",
          "type": "uint256"
        }
      ],
      "stateMutability": "view",
      "type": "function"
    },
    {
      "inputs": [
        {
          "internalType": "uint256",
          "name": "_index",
          "type": "uint256"
        }
      ],
      "name": "getStaker",
      "outputs": [
        {
          "internalType": "address",
          "name": "",
          "type": "address"
        }
      ],
      "stateMutability": "view",
      "type": "function"
    },
    {
      "inputs": [
        {
          "internalType": "address",
          "name": "_staker",
          "type": "address"
        }
      ],
      "name": "getStakersBalance",
      "outputs": [
        {
          "internalType": "uint256",
          "name": "",
          "type": "uint256"
        }
      ],
      "stateMutability": "view",
      "type": "function"
    },
    {
      "inputs": [],
      "name": "getThreshold",
      "outputs": [
        {
          "internalType": "uint256",
          "name": "",
          "type": "uint256"
        }
      ],
      "stateMutability": "pure",
      "type": "function"
    },
    {
      "inputs": [],
      "name": "withdraw",
      "outputs": [],
      "stateMutability": "nonpayable",
      "type": "function"
    },
    {
      "stateMutability": "payable",
      "type": "receive"
    }
  ],
  "bytecode": "0x60c060405247600155611c206080908152506801158e460913d0000060a0908152506200003f6000546001546200019460201b6200085e1790919060201c565b6004556040516200139438038062001394833981810160405281019062000067919062000216565b60003073ffffffffffffffffffffffffffffffffffffffff16346040516200008f906200027d565b60006040518083038185875af1925050503d8060008114620000ce576040519150601f19603f3d011682016040523d82523d6000602084013e620000d3565b606091505b50509050806200010f576040517ff1b8e45500000000000000000000000000000000000000000000000000000000815260040160405180910390fd5b346000819055506001600360006101000a81548160ff021916908360038111156200013f576200013e62000294565b5b02179055504260028190555081600560006101000a81548173ffffffffffffffffffffffffffffffffffffffff021916908373ffffffffffffffffffffffffffffffffffffffff160217905550505062000337565b60008183620001a49190620002fc565b905092915050565b600080fd5b600073ffffffffffffffffffffffffffffffffffffffff82169050919050565b6000620001de82620001b1565b9050919050565b620001f081620001d1565b8114620001fc57600080fd5b50565b6000815190506200021081620001e5565b92915050565b6000602082840312156200022f576200022e620001ac565b5b60006200023f84828501620001ff565b91505092915050565b600081905092915050565b50565b60006200026560008362000248565b9150620002728262000253565b600082019050919050565b60006200028a8262000256565b9150819050919050565b7f4e487b7100000000000000000000000000000000000000000000000000000000600052602160045260246000fd5b6000819050919050565b7f4e487b7100000000000000000000000000000000000000000000000000000000600052601160045260246000fd5b60006200030982620002c3565b91506200031683620002c3565b9250828210156200032c576200032b620002cd565b5b828203905092915050565b60805160a051611014620003806000396000818161039f015281816103fa0152818161046301526107d10152600081816102b601528181610605015261075601526110146000f3fe6080604052600436106100ab5760003560e01c8063ced72f8711610064578063ced72f87146101bf578063d0e30db0146101ea578063e3c998fe146101f4578063e5a4bed314610231578063e75235b81461025c578063f86ccd4114610287576100ba565b80633ccfd60b146100bf5780634f1c44e8146100d65780635c8c0106146101015780635f8d96de1461012c5780636a69788b14610157578063a9bdbf8914610194576100ba565b366100ba576100b86102b2565b005b600080fd5b3480156100cb57600080fd5b506100d4610603565b005b3480156100e257600080fd5b506100eb610732565b6040516100f89190610c6b565b60405180910390f35b34801561010d57600080fd5b50610116610745565b6040516101239190610c9f565b60405180910390f35b34801561013857600080fd5b50610141610752565b60405161014e9190610c9f565b60405180910390f35b34801561016357600080fd5b5061017e60048036038101906101799190610d1d565b61077a565b60405161018b9190610c9f565b60405180910390f35b3480156101a057600080fd5b506101a96107c3565b6040516101b69190610c9f565b60405180910390f35b3480156101cb57600080fd5b506101d46107cd565b6040516101e19190610c9f565b60405180910390f35b6101f26102b2565b005b34801561020057600080fd5b5061021b60048036038101906102169190610d76565b6107f5565b6040516102289190610db2565b60405180910390f35b34801561023d57600080fd5b5061024661083d565b6040516102539190610c9f565b60405180910390f35b34801561026857600080fd5b50610271610846565b60405161027e9190610c9f565b60405180910390f35b34801561029357600080fd5b5061029c610856565b6040516102a99190610c9f565b60405180910390f35b60007f00000000000000000000000000000000000000000000000000000000000000006102ea6002544261085e90919063ffffffff16565b119050600080471190508180156102fe5750805b1561032f576000600360006101000a81548160ff0219169083600381111561032957610328610bf4565b5b02179055505b6000600381111561034357610342610bf4565b5b600360009054906101000a900460ff16600381111561036557610364610bf4565b5b141561039d576040517f931c2fa100000000000000000000000000000000000000000000000000000000815260040160405180910390fd5b7f000000000000000000000000000000000000000000000000000000000000000034116103f6576040517f6ef2e20400000000000000000000000000000000000000000000000000000000815260040160405180910390fd5b60007f0000000000000000000000000000000000000000000000000000000000000000346104249190610dfc565b90506000600560009054906101000a900473ffffffffffffffffffffffffffffffffffffffff1673ffffffffffffffffffffffffffffffffffffffff167f000000000000000000000000000000000000000000000000000000000000000060405161048e90610e61565b60006040518083038185875af1925050503d80600081146104cb576040519150601f19603f3d011682016040523d82523d6000602084013e6104d0565b606091505b505090508061050b576040517ff1b8e45500000000000000000000000000000000000000000000000000000000815260040160405180910390fd5b81600660003373ffffffffffffffffffffffffffffffffffffffff1673ffffffffffffffffffffffffffffffffffffffff168152602001908152602001600020600082825461055a9190610e76565b925050819055506007339080600181540180825580915050600190039060005260206000200160009091909190916101000a81548173ffffffffffffffffffffffffffffffffffffffff021916908373ffffffffffffffffffffffffffffffffffffffff1602179055507f82228ddde9005f71e552e17d0b2b4bd53f597251cd2afae87474c9895438a57a82336040516105f5929190610ecc565b60405180910390a150505050565b7f00000000000000000000000000000000000000000000000000000000000000006106396002544261085e90919063ffffffff16565b1015610671576040517f65e76f8100000000000000000000000000000000000000000000000000000000815260040160405180910390fd5b60006106886000544761085e90919063ffffffff16565b90506714d1120d7b16000081106106d1576002600360006101000a81548160ff021916908360038111156106bf576106be610bf4565b5b02179055506106cc610874565b610704565b60038060006101000a81548160ff021916908360038111156106f6576106f5610bf4565b5b02179055506107036109f5565b5b6000600360006101000a81548160ff0219169083600381111561072a57610729610bf4565b5b021790555050565b600360009054906101000a900460ff1681565b6000600780549050905090565b60007f0000000000000000000000000000000000000000000000000000000000000000905090565b6000600660008373ffffffffffffffffffffffffffffffffffffffff1673ffffffffffffffffffffffffffffffffffffffff168152602001908152602001600020549050919050565b6000600454905090565b60007f0000000000000000000000000000000000000000000000000000000000000000905090565b60006007828154811061080b5761080a610ef5565b5b9060005260206000200160009054906101000a900473ffffffffffffffffffffffffffffffffffffffff169050919050565b60008054905090565b60006714d1120d7b160000905090565b600047905090565b6000818361086c9190610dfc565b905092915050565b6002600381111561088857610887610bf4565b5b600360009054906101000a900460ff1660038111156108aa576108a9610bf4565b5b146108b457600080fd5b6000600660003373ffffffffffffffffffffffffffffffffffffffff1673ffffffffffffffffffffffffffffffffffffffff168152602001908152602001600020549050600061090682600454610b64565b90506000600660003273ffffffffffffffffffffffffffffffffffffffff1673ffffffffffffffffffffffffffffffffffffffff1681526020019081526020016000208190555060003273ffffffffffffffffffffffffffffffffffffffff168260405161097390610e61565b60006040518083038185875af1925050503d80600081146109b0576040519150601f19603f3d011682016040523d82523d6000602084013e6109b5565b606091505b50509050806109f0576040517ff1b8e45500000000000000000000000000000000000000000000000000000000815260040160405180910390fd5b505050565b600380811115610a0857610a07610bf4565b5b600360009054906101000a900460ff166003811115610a2a57610a29610bf4565b5b14610a3457600080fd5b6000600660003373ffffffffffffffffffffffffffffffffffffffff1673ffffffffffffffffffffffffffffffffffffffff1681526020019081526020016000205490506000600660003273ffffffffffffffffffffffffffffffffffffffff1673ffffffffffffffffffffffffffffffffffffffff1681526020019081526020016000208190555060003273ffffffffffffffffffffffffffffffffffffffff1682604051610ae390610e61565b60006040518083038185875af1925050503d8060008114610b20576040519150601f19603f3d011682016040523d82523d6000602084013e610b25565b606091505b5050905080610b60576040517ff1b8e45500000000000000000000000000000000000000000000000000000000815260040160405180910390fd5b5050565b600080610b8e600054610b808587610bb290919063ffffffff16565b610bc890919063ffffffff16565b90506000610ba58286610bde90919063ffffffff16565b9050809250505092915050565b60008183610bc09190610f53565b905092915050565b60008183610bd69190610f84565b905092915050565b60008183610bec9190610e76565b905092915050565b7f4e487b7100000000000000000000000000000000000000000000000000000000600052602160045260246000fd5b60048110610c3457610c33610bf4565b5b50565b6000819050610c4582610c23565b919050565b6000610c5582610c37565b9050919050565b610c6581610c4a565b82525050565b6000602082019050610c806000830184610c5c565b92915050565b6000819050919050565b610c9981610c86565b82525050565b6000602082019050610cb46000830184610c90565b92915050565b600080fd5b600073ffffffffffffffffffffffffffffffffffffffff82169050919050565b6000610cea82610cbf565b9050919050565b610cfa81610cdf565b8114610d0557600080fd5b50565b600081359050610d1781610cf1565b92915050565b600060208284031215610d3357610d32610cba565b5b6000610d4184828501610d08565b91505092915050565b610d5381610c86565b8114610d5e57600080fd5b50565b600081359050610d7081610d4a565b92915050565b600060208284031215610d8c57610d8b610cba565b5b6000610d9a84828501610d61565b91505092915050565b610dac81610cdf565b82525050565b6000602082019050610dc76000830184610da3565b92915050565b7f4e487b7100000000000000000000000000000000000000000000000000000000600052601160045260246000fd5b6000610e0782610c86565b9150610e1283610c86565b925082821015610e2557610e24610dcd565b5b828203905092915050565b600081905092915050565b50565b6000610e4b600083610e30565b9150610e5682610e3b565b600082019050919050565b6000610e6c82610e3e565b9150819050919050565b6000610e8182610c86565b9150610e8c83610c86565b9250827fffffffffffffffffffffffffffffffffffffffffffffffffffffffffffffffff03821115610ec157610ec0610dcd565b5b828201905092915050565b6000604082019050610ee16000830185610c90565b610eee6020830184610da3565b9392505050565b7f4e487b7100000000000000000000000000000000000000000000000000000000600052603260045260246000fd5b7f4e487b7100000000000000000000000000000000000000000000000000000000600052601260045260246000fd5b6000610f5e82610c86565b9150610f6983610c86565b925082610f7957610f78610f24565b5b828204905092915050565b6000610f8f82610c86565b9150610f9a83610c86565b9250817fffffffffffffffffffffffffffffffffffffffffffffffffffffffffffffffff0483118215151615610fd357610fd2610dcd565b5b82820290509291505056fea2646970667358221220cf04ae9f512295c4420e34cdd143f0232baf7ecad7ea13a50c6696ff7a6bca0e64736f6c63430008090033",
  "linkReferences": {},
  "deployedLinkReferences": {}
}