{
  "_format": "hh-sol-artifact-1",
  "contractName": "Stake",
  "sourceName": "contracts/stake.sol",
  "abi": [
    {
      "inputs": [
        {
          "internalType": "address",
          "name": "_to",
          "type": "address"
        }
      ],
      "stateMutability": "payable",
      "type": "constructor"
    },
    {
      "inputs": [],
      "name": "Stake__closed",
      "type": "error"
    },
    {
      "inputs": [],
      "name": "Stake__deadlineNotReached",
      "type": "error"
    },
    {
      "inputs": [],
      "name": "Stake__sendMoreEth",
      "type": "error"
    },
    {
      "inputs": [],
      "name": "Stake__transferFailed",
      "type": "error"
    },
    {
      "anonymous": false,
      "inputs": [
        {
          "indexed": false,
          "internalType": "uint256",
          "name": "amount",
          "type": "uint256"
        },
        {
          "indexed": false,
          "internalType": "address",
          "name": "sender",
          "type": "address"
        }
      ],
      "name": "depositedEth",
      "type": "event"
    },
    {
      "inputs": [],
      "name": "_stakeState",
      "outputs": [
        {
          "internalType": "enum Stake.StakeState",
          "name": "",
          "type": "uint8"
        }
      ],
      "stateMutability": "view",
      "type": "function"
    },
    {
      "inputs": [],
      "name": "amountDeposited",
      "outputs": [
        {
          "internalType": "uint256",
          "name": "",
          "type": "uint256"
        }
      ],
      "stateMutability": "view",
      "type": "function"
    },
    {
      "inputs": [],
      "name": "deposit",
      "outputs": [],
      "stateMutability": "payable",
      "type": "function"
    },
    {
      "inputs": [],
      "name": "getAmountStaked",
      "outputs": [
        {
          "internalType": "uint256",
          "name": "",
          "type": "uint256"
        }
      ],
      "stateMutability": "view",
      "type": "function"
    },
    {
      "inputs": [],
      "name": "getDeadline",
      "outputs": [
        {
          "internalType": "uint256",
          "name": "",
          "type": "uint256"
        }
      ],
      "stateMutability": "pure",
      "type": "function"
    },
    {
      "inputs": [],
      "name": "getFee",
      "outputs": [
        {
          "internalType": "uint256",
          "name": "",
          "type": "uint256"
        }
      ],
      "stateMutability": "pure",
      "type": "function"
    },
    {
      "inputs": [],
      "name": "getInterest",
      "outputs": [
        {
          "internalType": "uint256",
          "name": "",
          "type": "uint256"
        }
      ],
      "stateMutability": "view",
      "type": "function"
    },
    {
      "inputs": [],
      "name": "getStakelength",
      "outputs": [
        {
          "internalType": "uint256",
          "name": "",
          "type": "uint256"
        }
      ],
      "stateMutability": "view",
      "type": "function"
    },
    {
      "inputs": [
        {
          "internalType": "uint256",
          "name": "_index",
          "type": "uint256"
        }
      ],
      "name": "getStaker",
      "outputs": [
        {
          "internalType": "address",
          "name": "",
          "type": "address"
        }
      ],
      "stateMutability": "view",
      "type": "function"
    },
    {
      "inputs": [
        {
          "internalType": "address",
          "name": "_staker",
          "type": "address"
        }
      ],
      "name": "getStakersBalance",
      "outputs": [
        {
          "internalType": "uint256",
          "name": "",
          "type": "uint256"
        }
      ],
      "stateMutability": "view",
      "type": "function"
    },
    {
      "inputs": [],
      "name": "getThreshold",
      "outputs": [
        {
          "internalType": "uint256",
          "name": "",
          "type": "uint256"
        }
      ],
      "stateMutability": "pure",
      "type": "function"
    },
    {
      "inputs": [],
      "name": "withdraw",
      "outputs": [],
      "stateMutability": "nonpayable",
      "type": "function"
    },
    {
      "stateMutability": "payable",
      "type": "receive"
    }
  ],
  "bytecode": "0x60c060405247600155611c2060809081525066470de4df82000060a0908152506040516200131f3803806200131f8339818101604052810190620000449190620001db565b60003073ffffffffffffffffffffffffffffffffffffffff16346040516200006c9062000242565b60006040518083038185875af1925050503d8060008114620000ab576040519150601f19603f3d011682016040523d82523d6000602084013e620000b0565b606091505b5050905080620000ec576040517ff1b8e45500000000000000000000000000000000000000000000000000000000815260040160405180910390fd5b346000819055506001600360006101000a81548160ff021916908360038111156200011c576200011b62000259565b5b02179055504260028190555081600360016101000a81548173ffffffffffffffffffffffffffffffffffffffff021916908373ffffffffffffffffffffffffffffffffffffffff160217905550505062000288565b600080fd5b600073ffffffffffffffffffffffffffffffffffffffff82169050919050565b6000620001a38262000176565b9050919050565b620001b58162000196565b8114620001c157600080fd5b50565b600081519050620001d581620001aa565b92915050565b600060208284031215620001f457620001f362000171565b5b60006200020484828501620001c4565b91505092915050565b600081905092915050565b50565b60006200022a6000836200020d565b9150620002378262000218565b600082019050919050565b60006200024f826200021b565b9150819050919050565b7f4e487b7100000000000000000000000000000000000000000000000000000000600052602160045260246000fd5b60805160a05161104e620002d16000396000818161039f015281816103fa0152818161046301526108000152600081816102b6015281816106050152610756015261104e6000f3fe6080604052600436106100ab5760003560e01c8063ced72f8711610064578063ced72f87146101bf578063d0e30db0146101ea578063e3c998fe146101f4578063e5a4bed314610231578063e75235b81461025c578063f86ccd4114610287576100ba565b80633ccfd60b146100bf5780634f1c44e8146100d65780635c8c0106146101015780635f8d96de1461012c5780636a69788b14610157578063a9bdbf8914610194576100ba565b366100ba576100b86102b2565b005b600080fd5b3480156100cb57600080fd5b506100d4610603565b005b3480156100e257600080fd5b506100eb610732565b6040516100f89190610ca5565b60405180910390f35b34801561010d57600080fd5b50610116610745565b6040516101239190610cd9565b60405180910390f35b34801561013857600080fd5b50610141610752565b60405161014e9190610cd9565b60405180910390f35b34801561016357600080fd5b5061017e60048036038101906101799190610d57565b61077a565b60405161018b9190610cd9565b60405180910390f35b3480156101a057600080fd5b506101a96107c3565b6040516101b69190610cd9565b60405180910390f35b3480156101cb57600080fd5b506101d46107fc565b6040516101e19190610cd9565b60405180910390f35b6101f26102b2565b005b34801561020057600080fd5b5061021b60048036038101906102169190610db0565b610824565b6040516102289190610dec565b60405180910390f35b34801561023d57600080fd5b5061024661086c565b6040516102539190610cd9565b60405180910390f35b34801561026857600080fd5b50610271610875565b60405161027e9190610cd9565b60405180910390f35b34801561029357600080fd5b5061029c610885565b6040516102a99190610cd9565b60405180910390f35b60007f00000000000000000000000000000000000000000000000000000000000000006102ea6002544261088d90919063ffffffff16565b119050600080471190508180156102fe5750805b1561032f576000600360006101000a81548160ff0219169083600381111561032957610328610c2e565b5b02179055505b6000600381111561034357610342610c2e565b5b600360009054906101000a900460ff16600381111561036557610364610c2e565b5b141561039d576040517f931c2fa100000000000000000000000000000000000000000000000000000000815260040160405180910390fd5b7f000000000000000000000000000000000000000000000000000000000000000034116103f6576040517f6ef2e20400000000000000000000000000000000000000000000000000000000815260040160405180910390fd5b60007f0000000000000000000000000000000000000000000000000000000000000000346104249190610e36565b90506000600360019054906101000a900473ffffffffffffffffffffffffffffffffffffffff1673ffffffffffffffffffffffffffffffffffffffff167f000000000000000000000000000000000000000000000000000000000000000060405161048e90610e9b565b60006040518083038185875af1925050503d80600081146104cb576040519150601f19603f3d011682016040523d82523d6000602084013e6104d0565b606091505b505090508061050b576040517ff1b8e45500000000000000000000000000000000000000000000000000000000815260040160405180910390fd5b81600460003373ffffffffffffffffffffffffffffffffffffffff1673ffffffffffffffffffffffffffffffffffffffff168152602001908152602001600020600082825461055a9190610eb0565b925050819055506005339080600181540180825580915050600190039060005260206000200160009091909190916101000a81548173ffffffffffffffffffffffffffffffffffffffff021916908373ffffffffffffffffffffffffffffffffffffffff1602179055507f82228ddde9005f71e552e17d0b2b4bd53f597251cd2afae87474c9895438a57a82336040516105f5929190610f06565b60405180910390a150505050565b7f00000000000000000000000000000000000000000000000000000000000000006106396002544261088d90919063ffffffff16565b1015610671576040517f65e76f8100000000000000000000000000000000000000000000000000000000815260040160405180910390fd5b60006106886000544761088d90919063ffffffff16565b90506714d1120d7b16000081106106d1576002600360006101000a81548160ff021916908360038111156106bf576106be610c2e565b5b02179055506106cc6108a3565b610704565b60038060006101000a81548160ff021916908360038111156106f6576106f5610c2e565b5b0217905550610703610a2f565b5b6000600360006101000a81548160ff0219169083600381111561072a57610729610c2e565b5b021790555050565b600360009054906101000a900460ff1681565b6000600580549050905090565b60007f0000000000000000000000000000000000000000000000000000000000000000905090565b6000600460008373ffffffffffffffffffffffffffffffffffffffff1673ffffffffffffffffffffffffffffffffffffffff168152602001908152602001600020549050919050565b6000806107ce610885565b905060006107da61086c565b905060006107f1828461088d90919063ffffffff16565b905080935050505090565b60007f0000000000000000000000000000000000000000000000000000000000000000905090565b60006005828154811061083a57610839610f2f565b5b9060005260206000200160009054906101000a900473ffffffffffffffffffffffffffffffffffffffff169050919050565b60008054905090565b60006714d1120d7b160000905090565b600047905090565b6000818361089b9190610e36565b905092915050565b600260038111156108b7576108b6610c2e565b5b600360009054906101000a900460ff1660038111156108d9576108d8610c2e565b5b146108e357600080fd5b6000600460003373ffffffffffffffffffffffffffffffffffffffff1673ffffffffffffffffffffffffffffffffffffffff16815260200190815260200160002054905060006109316107c3565b9050600061093f8383610b9e565b90506000600460003273ffffffffffffffffffffffffffffffffffffffff1673ffffffffffffffffffffffffffffffffffffffff1681526020019081526020016000208190555060003273ffffffffffffffffffffffffffffffffffffffff16826040516109ac90610e9b565b60006040518083038185875af1925050503d80600081146109e9576040519150601f19603f3d011682016040523d82523d6000602084013e6109ee565b606091505b5050905080610a29576040517ff1b8e45500000000000000000000000000000000000000000000000000000000815260040160405180910390fd5b50505050565b600380811115610a4257610a41610c2e565b5b600360009054906101000a900460ff166003811115610a6457610a63610c2e565b5b14610a6e57600080fd5b6000600460003373ffffffffffffffffffffffffffffffffffffffff1673ffffffffffffffffffffffffffffffffffffffff1681526020019081526020016000205490506000600460003273ffffffffffffffffffffffffffffffffffffffff1673ffffffffffffffffffffffffffffffffffffffff1681526020019081526020016000208190555060003273ffffffffffffffffffffffffffffffffffffffff1682604051610b1d90610e9b565b60006040518083038185875af1925050503d8060008114610b5a576040519150601f19603f3d011682016040523d82523d6000602084013e610b5f565b606091505b5050905080610b9a576040517ff1b8e45500000000000000000000000000000000000000000000000000000000815260040160405180910390fd5b5050565b600080610bc8600054610bba8587610bec90919063ffffffff16565b610c0290919063ffffffff16565b90506000610bdf8286610c1890919063ffffffff16565b9050809250505092915050565b60008183610bfa9190610f8d565b905092915050565b60008183610c109190610fbe565b905092915050565b60008183610c269190610eb0565b905092915050565b7f4e487b7100000000000000000000000000000000000000000000000000000000600052602160045260246000fd5b60048110610c6e57610c6d610c2e565b5b50565b6000819050610c7f82610c5d565b919050565b6000610c8f82610c71565b9050919050565b610c9f81610c84565b82525050565b6000602082019050610cba6000830184610c96565b92915050565b6000819050919050565b610cd381610cc0565b82525050565b6000602082019050610cee6000830184610cca565b92915050565b600080fd5b600073ffffffffffffffffffffffffffffffffffffffff82169050919050565b6000610d2482610cf9565b9050919050565b610d3481610d19565b8114610d3f57600080fd5b50565b600081359050610d5181610d2b565b92915050565b600060208284031215610d6d57610d6c610cf4565b5b6000610d7b84828501610d42565b91505092915050565b610d8d81610cc0565b8114610d9857600080fd5b50565b600081359050610daa81610d84565b92915050565b600060208284031215610dc657610dc5610cf4565b5b6000610dd484828501610d9b565b91505092915050565b610de681610d19565b82525050565b6000602082019050610e016000830184610ddd565b92915050565b7f4e487b7100000000000000000000000000000000000000000000000000000000600052601160045260246000fd5b6000610e4182610cc0565b9150610e4c83610cc0565b925082821015610e5f57610e5e610e07565b5b828203905092915050565b600081905092915050565b50565b6000610e85600083610e6a565b9150610e9082610e75565b600082019050919050565b6000610ea682610e78565b9150819050919050565b6000610ebb82610cc0565b9150610ec683610cc0565b9250827fffffffffffffffffffffffffffffffffffffffffffffffffffffffffffffffff03821115610efb57610efa610e07565b5b828201905092915050565b6000604082019050610f1b6000830185610cca565b610f286020830184610ddd565b9392505050565b7f4e487b7100000000000000000000000000000000000000000000000000000000600052603260045260246000fd5b7f4e487b7100000000000000000000000000000000000000000000000000000000600052601260045260246000fd5b6000610f9882610cc0565b9150610fa383610cc0565b925082610fb357610fb2610f5e565b5b828204905092915050565b6000610fc982610cc0565b9150610fd483610cc0565b9250817fffffffffffffffffffffffffffffffffffffffffffffffffffffffffffffffff048311821515161561100d5761100c610e07565b5b82820290509291505056fea2646970667358221220dfac7c88210c7091bf264275e5bb84e549cace707b54102567b443abaf657cff64736f6c63430008090033",
  "linkReferences": {},
  "deployedLinkReferences": {}
}